:1000000000800020BD010000C5CA000081CA0000B8
:1000100081CA000081CA000081CA000081CA0000B4
:1000200081CA000081CA000081CA0000C5CA000060
:10003000C5CA000081CA000079BD00007DBD000076
:10004000C5CA0000C5CA0000C5CA0000C5CA000074
:10005000C5CA0000C5CA0000C5CA0000C5CA000064
:10006000C5CA0000C5CA0000C5CA0000C5CA000054
:10007000C5CA0000C5CA0000C5CA0000C5CA000044
:10008000C5CA0000C5CA0000C5CA0000C5CA000034
:10009000C5CA0000C5CA0000C5CA0000C5CA000024
:1000A0007DB6000089B60000C5CA0000C5CA0000C0
:1000B000C5CA0000C5CA0000C5CA0000C5CA000004
:1000C000C5CA0000C5CA0000C5CA0000C5CA0000F4
:1000D000C5CA0000C5CA0000C5CA0000C5CA0000E4
:1000E000C5CA0000C5CA0000C5CA0000C5CA0000D4
:1000F000C5CA0000C5CA0000C5CA0000C5CA0000C4
:10010000C5CA0000C5CA0000C5CA0000C5CA0000B3
:10011000C5CA0000C5CA0000C5CA0000C5CA0000A3
:10012000C5CA0000C5CA0000C5CA0000C5CA000093
:10013000C5CA0000C5CA0000C5CA0000C5CA000083
:10014000C5CA0000C5CA0000C5CA0000C5CA000073
:100150009DBE0000B9BE0000D5BE0000F1BE00008B
:10016000C5CA00009DD00000C5CA0000C5CA000075
:10017000C5CA0000C5CA0000C5CA0000C5CA000043
:10018000C5CA0000C5CA0000C5CA0000C5CA000033
:10019000C5CA0000C5CA0000C5CA0000C5CA000023
:1001A000C5CA0000C5CA0000C5CA0000C5CA000013
:1001B000C5CA0000C5CA000049BB0000574B4CF23D
:1001C000205210B5DA814DF62812DA8100BF00BF47
:1001D0000CF07CFC524B4FF010621A63514A9A6348
:1001E000514ADA63514A136913F4807303D153619E
:1001F0004FF4A85313614E4B9A78110703D59A78A0
:1002000042F008029A704B4B4B482A221A704B4B13
:10021000DA1C121AC11E22F00302994288BF002282
:1002200047490CF059FB474B4748DA1C121AC11ECC
:1002300022F00302994288BF002200210FF0BCFD8A
:10024000424943484FF4DE720CF046FB414B424AB0
:10025000802103F8011B9342FBD14FF0E0233C4A7D
:10026000C3F8082D3D4B8A221A70A3F5805324222F
:100270005A70A0221A709A799207FCD59A79D406FE
:10028000FCD4374B9A7902F00C02082AFAD10322E7
:100290001A7140225A719A799006FCD5304A9379A6
:1002A0005906FCD51E4B2F4959640221996420211F
:1002B0001170917901F00C010C29FAD12A4A5A6087
:1002C0004FF0E023294A5A6100229A6107221A61FD
:1002D000274AC3F8202D62B60CF016FD134B5B695C
:1002E000DA0705D523480CF003FD234B234ADA61D6
:1002F000234B1B785B0609D51F4C204BE2699A42C1
:1003000004D11C480CF0F4FC0023E3610CF0E4FB86
:100310000FF0BEFE0CF0D8FAFEE700BF002005404B
:1003200000800440823F04000100002B00D0034005
:1003300000D0074000E0074020BDFF1FC0C7FF1FDF
:10034000142D0100C0F4FF1FC0C7FF1F00000000F4
:1003500000B8FF1F00E400E05FE400E0005006404A
:100360000040064000000301C0100500FF760100B8
:1003700000002020D606496A00E00340A5C3945A35
:1003800000F00740FFFFFFFFFFFFFFFFFFFFFFFF42
:10039000FFFFFFFFFFFFFFFFFFFFFFFFFFFFFFFF6D
:1003A000FFFFFFFFFFFFFFFFFFFFFFFFFFFFFFFF5D
:1003B000FFFFFFFFFFFFFFFFFFFFFFFFFFFFFFFF4D
:1003C000FFFFFFFFFFFFFFFFFFFFFFFFFFFFFFFF3D
:1003D000FFFFFFFFFFFFFFFFFFFFFFFFFFFFFFFF2D
:1003E000FFFFFFFFFFFFFFFFFFFFFFFFFFFFFFFF1D
:1003F000FFFFFFFFFFFFFFFFFFFFFFFFFFFFFFFF0D
:10040000FFFFFFFFFFFFFFFFFFFFFFFFDEF9FFFF23
:100410000548064B1B1AD90F01EBA301491002D066
:10042000034B03B118477047C0C7FF1FC0C7FF1F6A
:100430000000000008B5054B1BB105490548AFF3A6
:100440000080BDE80840FFF7E3BF00BF00000000E8
:10045000C0C7FF1F0C2D010000207047704700BF70
:10046000036D0BB101207047406D003818BF0120AB
:10047000704700BF10B50446806D18B10EF06EFED7
:100480000023A365236D2BB104F11800BDE81040D3
:1004900009F0C6BD636D002BF6D110BDF0B595B067
:1004A0000022234F01924FF47A741831054604A8B4
:1004B000CDE9122202948DF80C20009709F01CFE61
:1004C000129B002B29D05C200CF020FB019BC36009
:1004D000029B03619DF80C300375164B03600026E8
:1004E000154B83600446466004A9183009F06AFD84
:1004F0004FF47A73AB606368104AA7600133A66556
:100500006E602A602E732C6163600D4B009304A80B
:1005100009F086FD284615B0F0BD139B002BD2D103
:10052000064A6B60AC602B732A602B61EDE700BF5D
:100530003409010084090100E008010058090100A4
:100540001009010010B50446806D00B110BD4FF4D4
:1005500080700EF0FBFDA065B0B1236D002202702B
:100560003BB101464FF48072184609F081FAA06D44
:1005700010BD636D002BE9D001464FF48072184620
:1005800006F0D8FFA06D10BD0148A06510BD00BFEA
:10059000D8C7FF1F38B5056D6DB10BB1002038BD50
:1005A0001146284607F0C2FF0028F7D02846BDE8CC
:1005B000384008F053B9446D002CEFD0204605F0C8
:1005C0007FFC0028EAD02046BDE8384006F09ABA01
:1005D0008A79A2F150031B0620D4F0B54B79046D43
:1005E0000D798E784F780978013385B002F26C72FC
:1005F000DBB244B103918DE8E0000221204608F00F
:10060000C1F805B0F0BD406D0028FAD003918DE827
:10061000E000022106F0C6F905B0F0BD00207047E9
:1006200010B50446006D80B1037813F0700F00D14F
:1006300010BD002107F07AFF606D0028F8D0BDE8FA
:1006400010400022002305F03BBC606D0028EFD075
:1006500090F8313013F0500FEAD0BDE8104000227E
:10066000002305F02DBC00BF10B50346006D82B01D
:100670000C4620B30DF1060201A907F07FFB38B349
:10068000BDF80430BDF8062053EA020120D0C2F3C1
:10069000451C02F01F00D20AC3F343114000A270B0
:1006A0005A0A0139207003F01F0302F5EA620120A3
:1006B00084F801C023716171A27102B010BD586D40
:1006C00030B10DF1060201A905F094FA0028D7D146
:1006D000002002B010BD00BF10B50346006D82B00F
:1006E0000C4620B30DF1060201A907F037FB38B321
:1006F000BDF80430BDF8062053EA020120D0C2F351
:10070000451C02F01F00D20AC3F343114000A2703F
:100710005A0A0139207003F01F0302F5EA62012032
:1007200084F801C023716171A27102B010BD586DCF
:1007300030B10DF1060201A905F04AFA0028D7D11F
:10074000002002B010BD00BF006990B10368154AD7
:100750001B69934225D1036D63B1187810F008002E
:1007600007D0D8695B69C01A48BF6FF00040704776
:1007700018467047436D002BFAD093F8310010F003
:100780000800F6D0186919685A695B68401A62EB6C
:100790000303B0F1004F73F10003EAD36FF00040A0
:1007A00070471847A90A0000036973B11A6808491D
:1007B00052698A4207D1186D08B107F07BBD586DA8
:1007C00018B105F065BB184610474FF0FF30704771
:1007D000E1080000036963B11A68074992698A4217
:1007E00008D1186D08B107F0C7BF586D08B105F002
:1007F00091BF70471846104789090000036923B369
:1008000010B51968124A8C68944282B014D1186DE0
:1008100048B101220DF1070107F07EFC90B19DF86F
:10082000070002B010BD586D0028F8D001220DF16C
:10083000070105F059FAF1E701220DF10701184609
:10084000A047EBE74FF0FF30EBE74FF0FF3070478A
:100850003909000010B5036982B08DF80710BBB1EB
:100860001968104ACC68944215D1186D30B1012234
:100870000DF1070108F02CF802B010BD586D0028EA
:10088000FAD001220DF1070106F0B0F902B010BD57
:10089000184602B010BD01220DF107011846A0470D
:1008A00002B010BDB1090000036D13B158690021F9
:1008B0007047436D13B1D3E90001704718461946DC
:1008C000704700BF036D13B1D86900217047436DB5
:1008D00013B1D3E90401704718461946704700BFA9
:1008E0000346006D08B107F0E5BC586D08B105F08E
:1008F000CFBA4FF0FF3070470346806C08B107F065
:10090000D9BCD86C08B105F0C3BA4FF0FF307047BE
:10091000036D33B11B7813F0700F14BF012000205A
:100920007047406D30B190F8313013F0500F14BF64
:1009300001200020704700BF0346006D08B107F09A
:10094000EBBB586D08B105F0CFB94FF0FF307047E1
:1009500000B50346806C83B058B101220DF1070148
:1009600007F0DAFB01280CD19DF8070003B05DF811
:1009700004FBD86C28B101220DF1070105F0B4F990
:10098000F0E74FF0FF30F1E70346006D08B107F0E4
:10099000F3BE586D08B105F0BDBE70470346806CCC
:1009A00008B107F0E9BED86C08B105F0B3BE7047D6
:1009B0000346006D08B107F08BBF586D08B106F013
:1009C00015B970470346806C08B107F081BFD86C39
:1009D00008B106F00BB9704700B5034683B0806CD0
:1009E0008DF8071038B101220DF1070107F070FFF3
:1009F00003B05DF804FBD86C0028F9D001220DF19A
:100A0000070106F0F3F803B05DF804FB8A79A2F160
:100A100050031B0620D4F0B54B79046D0D798E7808
:100A20004F780978013385B002F26C72DBB244B1C1
:100A300003918DE8E0000421204607F0A3FE05B0F5
:100A4000F0BD406D0028FAD003918DE8E00004214C
:100A500005F0A8FF05B0F0BD00207047836C53B1CE
:100A6000187810F008000DD0D8695B69C01A48BF2B
:100A70006FF000407047C36CA3B193F8310010F0E1
:100A8000080000D17047186919685A695B68401AF4
:100A900062EB0303B0F1004F73F10003F2D36FF088
:100AA000004070471846EDE7036D53B1187810F019
:100AB00008000DD0D8695B69C01A48BF6FF00040CC
:100AC0007047436DA3B193F8310010F0080000D1D6
:100AD0007047186919685A695B68401A62EB03032A
:100AE000B0F1004F73F10003F2D36FF00040704794
:100AF0001846EDE70369B3B110B41C680B48E4680D
:100B000084420CD1186D10B110BC07F0E1BE586DD5
:100B100010B110BC06F06AB8002010BC704718462F
:100B2000234610BC18470020704700BFB1090000E1
:100B300038B50446806D0C4B236018B10EF00EFBE7
:100B40000023A365236D04F118054BB1284609F075
:100B500067FA064BA360284609F062FA204638BDC2
:100B6000636D002BF2D1F4E7840901001009010044
:100B700038B50446806D0E4B236018B10EF0EEFAC6
:100B80000023A365236D04F118056BB1284609F015
:100B900047FA084BA360284609F042FA20465C2138
:100BA0000BF0B6FF204638BD636D002BEED1F0E7A9
:100BB000840901001009010070B50569254B036027
:100BC0000446002D32D06E68013E6E6076BB2B6805
:100BD000214ADB6A934233D1A86D10B10EF0BEFA00
:100BE000AE652B6D43B305F1180009F019FA2569BC
:100BF000E5B12B68194A5B68934228D1A86D184B60
:100C00002B6018B10EF0AAFA0023AB652B6D05F12D
:100C10001806C3B1304609F003FA124BAB603046F8
:100C200009F0FEF95C2128460BF072FF20461421E2
:100C30000BF06EFF204670BD6B6D002BD3D1D6E755
:100C400028469847D3E76B6D002BE3D1E5E72846AC
:100C50009847EBE75809010075040000710B00008C
:100C6000840901001009010030B4029C11469C4621
:100C700034B1012C1CD0022C0ED0002030BC7047A7
:100C8000056DF5B14FF0FF33934274EB0C04F4D3D0
:100C9000284630BC07F04ABC026D0AB3D369591824
:100CA0004CF10003002BE8D130BC104607F03EBCED
:100CB000026D62B1536959184CF10003002BDCD16D
:100CC000F2E7406D0028D8D030BC05F0F9B8406D8F
:100CD0000028D2D0D0E900238A184CEB0303F3E7B5
:100CE000406D0028C9D0D0E904238A1830BC4CEBF1
:100CF000030305F0E5B800BFF8B500F58056264BB4
:100D0000D6F86851C6F858310446002D33D06F68C4
:100D1000013F6F607FBB2B68204ADB6A934230D172
:100D2000A86D10B10EF01AFAAF652B6D2BB305F15B
:100D3000180009F075F9D6F86851E5B12B68184A22
:100D40005B68934224D1A86D164B2B6018B10EF04E
:100D500005FA0023AB652B6D05F11806A3B13046EB
:100D600009F05EF9104BAB60304609F059F95C218F
:100D700028460BF0CDFE2046F8BD6B6D002BD6D17A
:100D8000D9E728469847D6E76B6D002BE7D1E9E70E
:100D900028469847EFE700BF580901007504000096
:100DA000710B0000840901001009010070B505698C
:100DB000234B03600446002D32D06E68013E6E6006
:100DC00076BB2B681F4ADB6A93422FD1A86D10B106
:100DD0000EF0C4F9AE652B6D23B305F1180009F0D0
:100DE0001FF92569E5B12B68174A5B68934224D146
:100DF000A86D164B2B6018B10EF0B0F90023AB654F
:100E00002B6D05F11806A3B1304609F009F9104B16
:100E1000AB60304609F004F95C2128460BF078FEFF
:100E2000204670BD6B6D002BD7D1DAE72846984776
:100E3000D7E76B6D002BE7D1E9E728469847EFE746
:100E40005809010075040000710B000084090100BD
:100E50001009010010B40146124C134B41F8283B15
:100E60002368016100224FF4806CA0F808C0C260C2
:100E70008262C2620263426393B11A465B69002BCD
:100E8000FBD150614FF480330022084910BC42610D
:100E90004260827201608361C36103624362704792
:100EA0002060EFE7E0EFFF1F04090100E4240100E8
:100EB000134910B50B6804460022124820602261D5
:100EC0002281E260D3B11A465B69002BFBD15461E9
:100ED00000230D4963604FF08042A372216063617B
:100EE000A361E36123626362A262E3622363A38678
:100EF00004F1380004F084F8204610BD0C60E7E7E8
:100F0000E0EFFF1F04090100FC240100F8B52648AA
:100F10000A2104F0C3FD002842D1234F05460A21CF
:100F2000384604F0BBFD044621460320C4BB0BF049
:100F30003DFF214604200BF039FF214605200BF030
:100F400035FF214606200BF031FF14200BF09EFFE9
:100F500015F003060CBF0121002103200BF026FF32
:100F6000A6F10101B1FA81F1490904200BF01EFF3D
:100F7000A6F10201B1FA81F1490905200BF016FF33
:100F8000A6F10301B1FA81F1490906200BF00EFF29
:100F9000013514200BF07AFF052DC0D12046F8BD95
:100FA00001242046F8BD00BFFCEAFF1F2DE9F04FE9
:100FB000554B564A1B6856481168564A0478053303
:100FC00085B003EB011302EB03100090002C5CD002
:100FD000514B524A1B685249D2F800A00968514E41
:100FE000DFF844B1514D0291871E841D0022B9469D
:100FF00003971F462346544692461A4639F9021F64
:10100000029BFF29194481F307011FD0484B01922D
:1010100053F8211038460DF0F5FC01463060009081
:1010200020460DF0EFFC00998046C6F81080084677
:10103000DBF8001000910DF0DBFB009928604046C2
:101040000DF0D6FB019A28610AF1020A914506F1DA
:1010500004060BF1040B05F10405CFD13549039FBC
:10106000354B14460AF1FF32002051F8221037F9AF
:10107000022FFF2A1ABF196019611860A74203F1F5
:101080000403F4D105B0BDE8F08F254A224B009946
:10109000D2F80080D3F800A0DFF894B08D1EA946E6
:1010A000274639F9022F02EB0803FF2A504683F343
:1010B000070310D05BF823100DF0A4FC1A4B53F873
:1010C000241006460DF094FB184B43F82400154BF2
:1010D00043F8246001370134082CE2D1154B009805
:1010E000164A013F0E3053F82740002635F9021FFB
:1010F000FF29234608BF3346854242F8043FF5D115
:1011000005B0BDE8F08F00BFE4C9FF1FECC9FF1FA9
:10111000DADDFF1F6CCCFF1FF0BEFF1FFCBEFF1F00
:1011200064CCFF1F68BEFF1FBCBEFF1F0CCAFF1FA1
:10113000DCC7FF1F48BEFF1F28BEFF1F24BEFF1FC6
:101140002DE9F84F294E2A4FDFF8A8A04FF00009EB
:10115000054606F120081EE0514658460DF00EFEE9
:1011600048B9254958460DF04DFC0DF04DFE234B76
:10117000E061984201D9214BE36100230B2D2362EA
:1011800065861DD00C2D2AD0A5F109039BB2012B39
:101190001FD9B0451BD057F804BF56F8044F4FF481
:1011A00080326262494658460DF0CAFD0028D3D00D
:1011B0000023E3610B2D4FF0000323626586E1D12C
:1011C000E16904F1380003F017FFB045E3D1BDE851
:1011D000F88FE16904F1380003F066FED9E7A26AEE
:1011E000E16904F1380003F0C3FED2E71CCBFF1F16
:1011F00064BEFF1FA655AC464B24BE470000FE7FD1
:1012000030B58310354D002B83B004462B6008DDCC
:10121000334B34491B680193334B019A1A60012008
:101220000870E1B240F2D2400BF028FB4FF0E0230F
:101230004FF08042C3F888212B68BBBB2B4B33F99E
:101240001400FFF77DFF634203F003034FF0E02239
:1012500004F003054FF0804058BF5D4214F0030FC7
:10126000234BC2F808010CBF0121002100220320FA
:101270001A700BF09BFDA5F10101B1FA81F149094A
:1012800004200BF093FDA5F10201B1FA81F14909A7
:1012900005200BF08BFDA5F10301B1FA81F149099D
:1012A000062003B0BDE830400BF080BD221F534242
:1012B00003F007030F4902F0070258BF5A420E4BD2
:1012C00051F8220003F1200153F8042F8B42D06221
:1012D000FAD10420FFF734FFB5E700BF64EAFF1F2F
:1012E00094F0FF1F65CAFF1F60EAFF1F20BFFF1FAA
:1012F000D9DDFF1F00BFFF1F1CCBFF1F2DE9F043EF
:10130000002183B002200BF085FD002108200BF0A6
:1013100081FD002109200BF07DFD01210B200BF048
:1013200079FD012106200BF075FD012105200BF050
:1013300071FD012104200BF06DFD012103200BF054
:1013400069FD32219D489E4C9E4DDFF87C92DFF86E
:101350007C829F4F9F4E0AF0B1F90D200BF098F957
:101360009D4B9E489E499F4A1C6058609E4C9F48DA
:101370009960DA609E499F4A1C6158619961DA61FF
:10138000002420460DF0EAFA49460DF031FA4146B4
:101390000DF02EFA014638460CF000FD31460DF0F6
:1013A00031FB0134802C45F8040FEAD19248934E6A
:1013B000934C072103F0A4FF0E218F4803F0E8FFB0
:1013C00040F2D2400BF040FA3060FFF79FFD01463B
:1013D000204602F0F1FB6379002B40F0B8803360C7
:1013E000884B894A1D6DDFF824820121002D116090
:1013F0004FF0090040F3BB800BF07EF9012D00F0A7
:10140000BD80102DA8BF102580F30D0005FB00F353
:10141000B5EB633F4FEA633200DC6A1E7C4B7D4FC5
:101420001A607D4B00221A703368D21A02F0030250
:1014300003F0030558BF554213F0030F0CBF012101
:10144000002103200BF0B2FCA5F10101B1FA81F1FA
:10145000490904200BF0AAFCA5F10201B1FA81F1BF
:10146000490905200BF0A2FCA5F10301B1FA81F1B5
:10147000490906200BF09AFC684BA2791A70684B58
:10148000A06818600DF066FA01464FF07E500DF02E
:101490006DFB237B634D22793B60634C634B28607B
:1014A0001A7004F1200523464FF0004153F8042F31
:1014B000AB429162FAD1DFF878C15E495E485F4A7B
:1014C0004FF48043CCF818308B61CCF81C30CB61E2
:1014D000CCF82030CCF824300B624B6206234385D5
:1014E000C385838647F670539361D36100231362EB
:1014F00053624FF08043036302F0C4FED8F800301B
:10150000002B3DD14E4B326833F91200FFF718FE25
:1015100038684C4D0DF022FA044601464FF08C40DD
:101520000DF024FB4FF07C510DF06CFA0DF046FCF1
:10153000454A03461360C0F500500DF00FFA01460E
:1015400020460DF013FB286003B0BDE8F08333683C
:10155000DFF8B8802C4A9B10C8F80030294B1D6D6D
:101560000321002D11604FF009003FF745AF0BF04C
:10157000C3F880F30D0242F352224FE700224DE7F9
:1015800033683249043B5A4202F0070203F0070372
:1015900058BF534251F8232054F8043FAC42DA625A
:1015A000FAD10420FFF7CCFD294B2A491A68019291
:1015B000294B019A1A6001200870A9E70082FF1FD9
:1015C000E0DDFF1FD8C7FF1F0000A8410000404218
:1015D0007D9C873F0000DC4320CBFF1F70DFFF1F97
:1015E00000E1FF1F90E2FF1F20E4FF1FB0E5FF1F97
:1015F00040E7FF1FD0E8FF1F2CBFFF1FDCDDFF1FF0
:101600006CCCFF1F6CDCFF1F28BFFF1F64EAFF1FAD
:10161000ECC9FF1FE4BEFF1FD9DDFF1F66CAFF1F15
:10162000E0BEFF1FE8BEFF1F1CCBFF1FDADDFF1F60
:1016300078CAFF1FB0CAFF1F2CCAFF1FE8CAFF1FCE
:1016400020BFFF1F60CCFF1F5CCCFF1F00BFFF1F30
:1016500094F0FF1F65CAFF1F60EAFF1F304B1B6835
:10166000002B2FDD10B52F482F49026882B04FF4B0
:1016700096740092013B04FB03F3009A0C686433F8
:10168000121B93421CD8294B02681C780192019AC4
:101690000A6084F001041C70ACB9214603200BF0F1
:1016A00085FB214604200BF081FB214605200BF031
:1016B0007DFB2146062002B0BDE810400BF076BB52
:1016C00002B010BD70471A4B1B6803205A4202EA51
:1016D000000203EA000458BF544213F0030F0CBF8A
:1016E000012100210BF062FBA4F10101B1FA81F1AB
:1016F000490904200BF05AFBA4F10201B1FA81F16F
:10170000490905200BF052FBA4F10301B1FA81F164
:101710004909062002B0BDE810400BF047BB00BFEE
:1017200064EAFF1F94F0FF1F60EAFF1F65CAFF1FF6
:10173000DCDDFF1F2DE9F04F464C85B02378019387
:10174000002B52D0444A454B126803921B68039801
:10175000C01A0DF0FFF8424B19680DF053F901461D
:101760004FF07E500DF044F8002180460DF0E8FA6D
:10177000002869D13B4C3C4F3C4E3D4D4FF0000B97
:1017800013E00DF0FBFA50B93A4948460DF03AF92A
:101790000DF03AFB384BCAF81C00984202D9364B80
:1017A000CAF81C30354BA3421CD057F8041F4046E2
:1017B0000DF028F9014654F8040F0DF019F85946B8
:1017C00046F8040F81460DF0BBFA03462C4955F844
:1017D00004AF4846002BD4D00023CAF81C30274B56
:1017E000A342E2D105B0BDE8F08F214C1D4D244F3E
:1017F000DFF880B04FF0000804F1200613E00DF090
:10180000BDFA02465946484642B90DF0FBF80DF0C4
:10181000FBFA194BCAF81C00984202D9164BCAF8B9
:101820001C30B442DED055F8049F414648460DF0C6
:1018300087FA024654F804AF39464846002ADED0FB
:10184000019BCAF81C30ECE700234FF0000823701E
:1018500090E700BF6CCAFF1F94F0FF1F68CAFF1F0C
:10186000E8BEFF1F64BEFF1F08CAFF1FB8BEFF1FF0
:101870001CCBFF1F4B24BE470000FE7F84BEFF1F12
:10188000A655AC46724AF8B51268724B724D53F8C1
:101890002240296820460DF0B5F8704906460DF043
:1018A0006DFA40B96E4930460DF04AFA002800F052
:1018B000C7806C4800E06C486C4E6968B061204697
:1018C0000DF0A0F8654907460DF058FA40B9644993
:1018D00038460DF035FA002800F0AA80614800E093
:1018E0006148A968F06120460DF08CF85B49074615
:1018F0000DF044FA40B95A4938460DF021FA002853
:1019000000F08E80574800E05748E9683062204672
:101910000DF078F8514907460DF030FA38B95049C2
:1019200038460DF00DFA002872D04E4800E04E48BF
:101930007062296920460DF065F8484906460DF0A9
:101940001DFA38B9464930460DF0FAF9002857D04B
:10195000444800E04448464E6969B06120460DF0B5
:1019600051F83E4907460DF009FA38B93C49384666
:101970000DF0E6F900283BD03A4800E03A48A96962
:10198000F06120460DF03EF8344907460DF0F6F9B7
:1019900030B9334938460DF0D3F900B3314B00E08C
:1019A000314BE969336220460DF02CF82B4904468F
:1019B0000DF0E4F938B92A4920460DF0C1F928B1F3
:1019C00028487062F8BD28487062F8BD4FF08F411A
:1019D00020460DF017F80DF0F1F97062F8BD4FF0E8
:1019E0008F4138460DF00EF80DF0E8F90346D8E7C0
:1019F0004FF08F4138460DF005F80DF0DFF9BEE7E6
:101A00004FF08F4130460CF0FDFF0DF0D7F9A2E703
:101A10004FF08F4138460CF0F5FF0DF0CFF987E716
:101A20004FF08F4138460CF0EDFF0DF0C7F96CE731
:101A30004FF08F4138460CF0E5FF0DF0BFF950E74D
:101A40004FF08F4130460CF0DDFF0DF0B7F933E772
:101A5000DCDDFF1F88BEFF1F28BEFF1F00FEFF4604
:101A600000FEFFC6000001800000FF7F78CAFF1F54
:101A7000B0CAFF1F10B500F00101044603200BF0AF
:101A800095F9C4F3400104200BF090F9C4F38001F0
:101A900005200BF08BF9C4F3C0010620BDE810400F
:101AA0000BF084B908B5164B1B6D002B25DD102BF0
:101AB000A8BF1023134A9842A8BF03F1FF30136850
:101AC00020EAE070834217D00F4B1049106000F1FC
:101AD000040C0A6853F82C30012BB8BF0123934241
:101AE00003DC0B4A013B0B601360FFF7C3FF09499E
:101AF000094A01230B70137008BD1023DAE700BFF9
:101B00006CDCFF1FECC9FF1F6CCCFF1FE4C9FF1F7B
:101B1000E8C9FF1FD9DDFF1FB8BEFF1F2DE9F04345
:101B2000082087B00BF068F9A0F10101894A8A4EBC
:101B3000DFF82882B1FA81F10346490909203360B0
:101B400011700AF0D9FD814606200AF0D5FD054640
:101B500007200AF0D1FD074608200AF0CDFD41F626
:101B6000FF727F4B9742A8BF17461B6D9042A8BFDC
:101B700010460022934227EAE77720EAE07088F8CF
:101B8000002040F3CA8000EB8004E40004F5805498
:101B90006413102B1A46A8BF1022282C14BF3C3403
:101BA0006324012B00F08D8089F30D0302FB03F306
:101BB000B2EB633F4FEA633000DC501EDFF8A491C4
:101BC000D9F80030834203D0FFF76CFFD9F800004A
:101BD000654B043053F82020012A40F3AD8085F393
:101BE0000D03A3F5DE53103B23EAE373582101FBF9
:101BF00003F303F580530C2A4FEA633303F1FF33F9
:101C0000A8BF0C229A42D8BF02F1FF3323EAE37344
:101C10005649574A0B601168994203D01360554BDF
:101C200001221A70544B1A681C60A24218BF01228C
:101C3000384618BF88F800200CF090FE4F49504FEE
:101C40000CF094FF4F490CF0DDFE4F490CF0D0FD35
:101C5000396805460CF0CCFD4C4920F000400DF0F1
:101C60008DF800282FD14A4B4A491A680C60A242CD
:101C700003D0404A1C6001211170474C474923683A
:101C80000093009B086835681B1A0A2B09D945B9CF
:101C90002368434A0193019B12689B1AB3F57A7F2C
:101CA00052D223680393039A3E4B121A1878236882
:101CB0000293029B05FB12330B60A0B107B0BDE895
:101CC000F08300207AE72F4928460CF04FFF0146A9
:101CD0004FF080400CF062F8264B3D6001221A70F4
:101CE000314B1860BFE7314802F0FAF82F4802F094
:101CF00047F92F4B187008BB2E4B1B6822680592C2
:101D00000599C91A13294FF00B008CBF002101213E
:101D100007B0BDE8F0430BF049B800EB8000C40009
:101D200004F580546413282C89F30D0014BF3C344F
:101D3000632440F3522041E7002369E723681D4AEA
:101D40000493049B1360D9E71B4A1C4B15700122B6
:101D50001A70A6E730CCFF1FDCC9FF1F58CCFF1F4D
:101D60006CDCFF1FECC9FF1F6CCCFF1FE4C9FF1F19
:101D7000E8C9FF1FB8BEFF1FECBEFF1F00F8FF45FC
:101D8000F4BEFF1F000040410000C0400AD7233CC2
:101D900068CCFF1F64CCFF1F94F0FF1FE0C9FF1F3A
:101DA00070CAFF1F64CAFF1FF0BEFF1F38CCFF1FA1
:101DB00050CCFF1F54CCFF1F74CAFF1FD8DDFF1F7C
:101DC0002DE9F041654C84B0FFF7A8FE2378002B85
:101DD00069D1634D2B78002B40F0BC80614E624D81
:101DE0003378BBB1614B62491B680293614A029B25
:101DF000096812685B1A9A4298BF00234FF0E024EA
:101E000098BF33704FF08046C4F88861FFF792FCAA
:101E1000C4F808612B785BB1544B57491B68574A8B
:101E20000393039B096812685B1A9A42C0F083808F
:101E3000534B1B78A3BB534B1B68002B04DD04B032
:101E4000BDE8F041FFF70ABC4F4B1B6803205A4224
:101E500002EA000203EA000458BF544213F0030FE1
:101E60000CBF012100210AF0A1FFA4F10101B1FA88
:101E700081F1490904200AF099FFA4F10201B1FAA5
:101E800081F1490905200AF091FFA4F10301B1FA9B
:101E900081F14909062004B0BDE8F0410AF086BF8F
:101EA00004B0BDE8F081FFF781F8384B2F4F1B7865
:101EB000002B37D12B4E2A4D2B7883B1324A344B2D
:101EC00010681B6801309B0090FBF3F103FB1100CD
:101ED0001060FFF795F90123237000232B703B68F6
:101EE00001930127244B204D019A1A60394609209D
:101EF0002F700AF08FFF39460B200AF057FF394642
:101F00004FF0E02709204FF080480AF04FFFC7F854
:101F10008881FFF70FFCFFF7B5FC0023C7F80881A5
:101F200023705DE73A68124B00920E4E009A1A60D9
:101F300001233370BFE700210B200AF037FF002197
:101F400009200AF033FF002109200AF063FF002373
:101F50002B706DE7054F034EB0E700BFB8BEFF1F03
:101F6000D8DDFF1F6CCAFF1F64CAFF1F94F0FF1F5C
:101F700068CAFF1FE0BEFF1F34CCFF1FDCBEFF1F7F
:101F8000D9DDFF1F64EAFF1FDCDDFF1F66CAFF1FEC
:101F900028BFFF1FF0B589B00AF020FCA248A34D6E
:101FA00001F0F8FFA048092102F002F89E4828211C
:101FB00001F094FF9E4B9F481A680292029C1A6897
:101FC00003929D4A039911601A6804920460049C6C
:101FD0001A68059205991A680692069A1B68079373
:101FE000964B97481960974B079E1A6004602E60C5
:101FF0009548FEF75DFF9548FEF75AFF9448FEF7B7
:1020000057FF9448FEF754FF9348FEF751FF93485B
:10201000FEF74EFF9248FEF74BFF9248FEF748FF4F
:102020009148FEF717FF9148FEF714FF9048FEF71E
:1020300011FF904A90489149046813464FF4807507
:1020400043F8181B002115811361D1609161002CA8
:1020500000F04881234619465B69002BFBD14A6199
:10206000874810604FF4681090628648864BD062B3
:102070004FF000500021106384485063516151605B
:1020800091721177012003F1180258721A611972C6
:10209000D960996122466469002CFBD153617C4A66
:1020A0005C615C609C721A60774802F06BFA794858
:1020B00009F04AFC6C4B644900942246754809F0CB
:1020C000B7FC754A754973480CF088FB01257448C4
:1020D00009F03AFC644B5D4900952246704809F0CE
:1020E000A7FC6D4A6D496E480CF078FB02276D48DD
:1020F00009F02AFC5C4B564900972246694809F0D2
:1021000097FC654A654967480CF068FB03266648FA
:1021100009F01AFC544B4F4900962246624809F0D8
:1021200087FC5D4A5D4960480CF058FB5F4809F048
:102130000BFC4E4B4849009422465C4809F078FC61
:10214000554A564959480CF049FB594809F0FCFBDF
:10215000464B424900952246554809F069FC4E4AD3
:102160004E4953480CF03AFB524809F0EDFB3F4B07
:102170003B49009722464F4809F05AFC464A4749D6
:102180004C480CF02BFB4C4809F0DEFB374B354933
:1021900000962246484809F04BFC3F4A3F494648D2
:1021A0000CF01CFB454809F0CFFB314B2E49009445
:1021B0002246424809F03CFC374A38493F480CF077
:1021C0000DFB3F4809F0C0FB294B284900952246EA
:1021D0003B4809F02DFC304A304939480CF0FEFAF2
:1021E000384809F0B1FB234B214900942246354879
:1021F00009F01EFC284A294932480CF0EFFA32480F
:1022000009F0A2FB204B1B49009422462E4809F0FE
:102210000FFC214A21492C480CF0E0FA2B4B2C48AA
:10222000196800F069F855E038CCFF1F68CAFF1F35
:1022300094F0FF1F54CCFF1FE0C9FF1F34CCFF1FD9
:1022400070CAFF1F60EAFF1FE0DDFF1F70DFFF1F86
:1022500000E1FF1F90E2FF1F20E4FF1FB0E5FF1F1A
:1022600040E7FF1FD0E8FF1F78CAFF1FB0CAFF1F5B
:10227000E8CAFF1F2CCAFF1FE0EFFF1F040901007F
:10228000D82401000E00C100F0C9FF1F77061C0012
:10229000F024010040CBFF1F24BEFF1FE5BA000061
:1022A00090CBFF1FF4CBFF1F08CCFF1FA4CBFF1F59
:1022B000B8CBFF1FCCCBFF1FE0CBFF1F1CCCFF1FF9
:1022C00054CBFF1F68CBFF1F7CCBFF1FF8BEFF1F47
:1022D0006CCCFF1F054A0649064809B0BDE8F0402E
:1022E0000CF07CBA02601446BAE600BF24BEFF1FA1
:1022F000F90C00006CCCFF1F2DE9F0411E4BDFF8FC
:102300007C800360322300268360C646282300F5C4
:10231000805586808671037304460F4600F1100CC9
:10232000BEE80F00ACE80F00BEE80F00ACE80F00FD
:10233000BEE80F00ACE80F009EE80F008CE80F002D
:102340002E6508F140014FF4807205F154000AF047
:10235000C3FA4FF47A73C5F8603185F86461084BAD
:10236000C5F85C61C5F85831C5F86861C5F85471A5
:102370002046BDE8F08100BF081A0100781F010067
:1023800058090100F8B500F582573E46054600F1B0
:102390005004103714364FF48072204631461444EE
:1023A0000DF08EFCBC42F6D105F10C0305F14C0298
:1023B000102143F8041F9A42FBD1F8BD2DE9F04FDC
:1023C00000F580549BB0236D0433002740F8237040
:1023D0000D460646394603A809F0EAFE3B469D49EC
:1023E0002A4606A807F038FF189B002B00F0C7818B
:1023F0005C200AF08BFB079AC260089A02619DF884
:1024000024200275944A02600025944A45600346E0
:1024100082600AA91830019307F0D4FD019BDFF810
:1024200040A25A689D6501325A608E4A9A600AA895
:10243000CDF818A007F0F4FDD4F86851019B002DE9
:1024400000F05E816F68013F6F60002F3FD12A6806
:102450008549D26A8A4240F01282A86D20B1019368
:102460000CF07CFE019BAF652A6D002A00F0EF8125
:1024700005F11800019307F0D3FD019BD4F86851D2
:102480002DB32A68794952688A4240F02782A86DA4
:10249000714A2A6028B101930CF060FE0022019B72
:1024A000AA652A6D002A00F0128205F11807384645
:1024B000019307F0B5FD019BC5F808A038460193CC
:1024C00007F0AEFD28465C210AF022FB019BC4F810
:1024D0006831002B39D00025DFF89491654FDFF883
:1024E00098B1A846184603681B694B454CD1036D4B
:1024F000002B00F0C3801A78110748D5D8695B69B2
:10250000C01A42D5D4F86821002A00F0A8811368C7
:102510009B68BB4240F09880106DE0B1012206A993
:1025200005F0FAFD002800F09A819DF818105B294B
:1025300019D0212923D0012D00F0BA80022D00F0FE
:10254000E280D4F868010028CDD103A809F06AFE22
:102550001BB0BDE8F08F506D0028E6D0012206A91F
:1025600003F0C2FBDEE7236D043356F823300F2B54
:1025700040F3C480012D00F0BC80022DE1D103A8FE
:1025800009F0DEFE0225DCE798470028BAD1D4F82E
:102590006851002DD9D02B68334FDB6ABB4240F025
:1025A0005B81A86D18B10CF0D9FD0023AB652B6DD4
:1025B000002B00F0298105F1180007F031FDD4F857
:1025C00068617568013D7560002D34D13368DB6A40
:1025D000BB4240F04C81B06D10B10CF0BFFDB56551
:1025E000336D002B00F02E8106F1180007F018FD66
:1025F000D4F86851FDB12B681C4A5B68934240F0E7
:102600005381A86D144B2B6018B10CF0A7FD00236B
:10261000AB652B6D05F11806002B00F02B813046C1
:1026200007F0FEFCC5F808A0304607F0F9FC5C2175
:1026300028460AF06DFA0023C4F8683103A809F0AF
:10264000F1FD1BB0BDE8F08F104606A901229847A6
:1026500068E700BF00EBFF1F84090100E0080100EC
:10266000100901003409010075040000710B00001D
:10267000A90A000039090000C4C1FF1F436D002BE7
:1026800085D093F83120120781D51A681869801A0D
:102690005A695B6862EB0303B0F1004F73F100030A
:1026A000FFF473AF6FF0004000287FF42BAF6EE7AC
:1026B0002C294FD05D291CD103A809F023FF226DDE
:1026C0009049131D56F8233003EB021308EBC303A4
:1026D00028334FF0000826F8130003A809F0DEFDA8
:1026E000236D06EB830345461A6901321A6128E718
:1026F000FF2103A809F024FE012522E7012520E798
:10270000C4F86831E7E60A297FF439AF07217E482B
:102710000BF08CF903A9584609F02CFC01217B48E9
:102720000BF084F9584609F04BFC794906A809F0EA
:102730003FFD06A903A809F029FE054606A809F0F1
:1027400071FD7DB3012373716E4903A809F0A6FDE5
:102750000025F6E603A809F0D5FE226D6949131D90
:1027600056F8233003EB021308EBC303283308F1B8
:10277000010826F8130003A809F090FDE1E6199B73
:10278000002B7FF435AEDFF88CA101930AA8CDF8B9
:1027900018A007F045FCD4F86851019B002D7FF488
:1027A00051AED2E65C4906A809F002FD06A903A8CD
:1027B00009F0ECFD054606A809F034FD4DBB57496C
:1027C00006A809F0F5FC06A903A809F0DFFD0546F7
:1027D00006A809F027FD002D56D0202103A809F0F6
:1027E00019FE021EB0DD03A906A809F023FE06A803
:1027F00009F088FE307306A809F014FD337B0B2B1B
:1028000079D80C2333739FE76B6D002B7FF4D3AE25
:10281000D5E60123B371202103A809F0FBFD021EB8
:1028200092DD03A906A809F005FE06A809F06AFED4
:10283000B06006A809F0F6FCB368042B53DC05234E
:10284000B36081E7736D002B7FF4CEAED0E66A6D86
:10285000002A7FF40DAE11E628469847AFE6012D19
:102860003FF446AF022D7FF46CAEFF2187E6304681
:102870009847BDE66B6D002B7FF4D1AED2E6019395
:1028800028469047019BF9E5254906A809F090FCE8
:1028900006A903A809F07AFD054606A809F0C2FCBE
:1028A0002DB1012333714FE728469847C3E60F2126
:1028B0001C480BF0BBF803A9584609F05BFB01214B
:1028C00019480BF0B3F8584609F07AFB3CE76A6DFB
:1028D000002A7FF4EAAD05F11807EDE501932846DB
:1028E0009047019BF3E5B3F5967F7FF72DAF4FF44B
:1028F0009673B36028E7482B7FF626AF48233373DF
:1029000022E700BFD42601000C1A0100AC1D010013
:10291000141A0100100901001C1A0100241A0100F8
:102920002C1A0100341A0100441A01002DE9F04F5D
:10293000ADF28C4D0023AF4FDFF8BC82009381468F
:102940000E463169002900F040810B68DB6BBB4209
:1029500040F0C0810022DFF8A4B20F924FF47A75E4
:10296000183112A8CDE9202210958DF84420CDF819
:1029700038B007F0C1FB209B002B00F099815C2050
:102980000AF0C4F805460F9A9D48EA609D4A1099DE
:10299000AA604FF0000A9DF844202961C5E9000AA9
:1029A0002A7512A905F1180007F00CFB6A68964B0E
:1029B000099301324FF47A7309AC6A60C5F808B024
:1029C000C5F858A02561C4F804A084F80CA0A36041
:1029D0008E4B0E9312A807F023FB2569002D00F003
:1029E000F4802B688A491A6B8A4240F078812A6DFC
:1029F000002A00F056815B6B864A934240F0B78113
:102A0000A96D002900F0BC8103A809F0D1FB25695C
:102A1000002D57D02B68DFF800B2DB6A5B4540F031
:102A2000AA81A86D18B10CF099FB0023AB652B6D42
:102A3000002B00F04A8105F1180007F0F1FAD4F8F4
:102A400010A0DAF80450013DCAF80450002D37D127
:102A5000DAF80020D26A5A4540F0AC81DAF8580022
:102A600018B10CF07BFBCAF85850DAF85020002A55
:102A700000F09A810AF1180007F0D2FA2569FDB139
:102A80002B68664A5B68934240F0AD81A86D5C4B51
:102A90002B6018B10CF062FB0023AB652B6D05F1C8
:102AA000180B002B00F09781584607F0B9FA574BE6
:102AB000AB60584607F0B4FA28465C210AF028F8C3
:102AC0000023236103A809F0F1FC03A906A809F07B
:102AD0008DFB06A809F0DAFC51490EA809F068FB45
:102AE0000EA906A809F066FC82460EA809F09AFB1A
:102AF0004C490EA809F05CFB0EA906A809F046FC9B
:102B000009F5805583460EA809F08CFBD5F85411C1
:102B100006A809F025FCBAF1000F07D0BBF1000FA1
:102B200004D018B9009B1F2B40F3658106A809F05B
:102B300079FB03A809F076FB2569334B2360002D50
:102B40003FF4FFAE6B68013B6B600193002B7FF499
:102B5000F8AE2A683049D26A8A4240F04181A86DB5
:102B600018B10CF0FBFA019BAB652B6D002B00F04C
:102B7000248105F1180007F053FA2469002C3FF472
:102B8000E0AE2368254A5B68934240F04081A06D27
:102B90001B4B236018B10CF0E1FA0023A365236DF1
:102BA00004F11805002B00F02181284607F038FABF
:102BB000164BA360284607F033FA5C21204609F043
:102BC000A7FF316900297FF4C0AE009B013B002BB9
:102BD000019347DD009B0DF1880B0BEB431600279B
:102BE0000EAD009B01370BF12008BB42C8BF444625
:102BF00034DD19E09D040000D8C7FF1F340901002F
:102C000084090100E00801005809010010090100D1
:102C1000610400004505000075040000710B000010
:102C2000E0090100481A0100214658460DF05CFAFF
:102C30000246002A594628460DDD0DF0EDF92146E1
:102C4000824658460DF0BAFBAAEB05022046013237
:102C5000294609F041FE2034A642E5D1019B9F425E
:102C6000C346BED1009B102B1F46A8BF10277BB1C7
:102C700022AE002409F5805531464846FFF79EFBF9
:102C80002B6D01340133A7422B6506F12006F3DCDE
:102C9000009B002BD4BF002001200DF28C4DBDE81D
:102CA000F08F6A6D002A7FF4A6AE644B236020E0AB
:102CB000219B002B7FF463AE0A938DF830300D9387
:102CC0005E4B0B9509AC236082E66B6D002B7FF4A5
:102CD000B2AEB4E609AC0022204698477DE628460D
:102CE0009047256900283FD1544B2360002D3FF4C5
:102CF0006CAF6E68013E6E60002E7FF466AF2B688D
:102D00004F4ADB6A934240F08A80A86D10B10CF004
:102D100025FAAE652B6D002B7CD005F1180007F06D
:102D20007FF92469002C3FF450AF2368454A5B6863
:102D300093427BD1A06D444B236018B10CF00EFA86
:102D40000023A365236D04F11805002B6AD02846E3
:102D500007F066F93D4BA360284607F061F95C2156
:102D6000204609F0D5FE30E745B939494CE62846FA
:102D70009847014648E62846984760E62B683AE6B9
:102D80004FF4807001910CF0E1F90346A86500282A
:102D90004FD001990170286DA0B119464FF480728F
:102DA00006F066FEA96D2FE6DAF85420002A7FF4BB
:102DB00061AE63E65046904760E66B6D002B7FF492
:102DC000D8AEDAE6686D20B119464FF4807204F08F
:102DD000B1FBA96D18E66B6D002B7FF465AE66E65E
:102DE00028469047C9E62846984769E6636D002B58
:102DF0007FF4DBAEDCE6009A22A901EB421101323E
:102E00000346009203A8202209F0EAFA8EE6204643
:102E1000984796E56B6D002B7FF47FAF81E72846DE
:102E200098477EE7636D002B91D193E72046984742
:102E3000CBE6C5F858804146E6E500BF58090100D9
:102E400075040000710B00008409010010090100E5
:102E5000D42601002DE9F043A74900F58056D1F8AA
:102E60008434D6F8542197B00446002B00F03985FD
:102E7000002002AD194602900123284605F0FCF817
:102E8000002840F05785D6F854219C4944F202238B
:102E9000284607F0E1F9149B002B00F033855C20F5
:102EA00009F034FE964BDFF85C820027C0E900375A
:102EB000039BC360944B8360049B036105469DF8AC
:102EC0001430037506A9183007F07CF86B68AF65FD
:102ED00001336B608D4BAB6006A8CDF8088007F01E
:102EE0009FF8D6F8687104F58A541834002F00F062
:102EF0008A837B68013B7B600193002B36D13A6863
:102F00008349D26A8A4240F02786B86D18B10CF026
:102F100025F9019BBB653B6D002B00F01A8507F17D
:102F2000180007F07DF8D6F86871FFB13B68794A60
:102F30005B68934240F01D86B86D714B3B6018B1E1
:102F40000CF00CF90023BB653B6D07F11809002B51
:102F500000F00986484607F063F8C7F8088048463D
:102F600007F05EF838465C2109F0D2FDC6F86851DA
:102F70006DB12B68684ADB68934240F04C83286D42
:102F8000002800F04D8365493C2205F0A1FC204655
:102F900009F016F8D6F868316BB11A68D5685E4A40
:102FA000954240F0F384186D002800F05D835C4981
:102FB0003C2205F08DFC204609F002F8D6F8683175
:102FC0006BB11A68D568544A954240F0D984186D9F
:102FD000002800F0408353493D2205F079FC20464B
:102FE00008F0EEFFD6F868316BB11A68D5684A4A26
:102FF000954240F0B984186D002800F01A834A49C0
:103000003D2205F065FC204608F0DAFFD6F868316D
:103010006BB11A68D568404A954240F0AB84186D90
:10302000002800F00F8341493C2205F051FC204666
:1030300008F0C6FFD6F868316BB11A68D568364A11
:10304000954240F06385186D002800F0948338495C
:10305000002205F03DFC204608F0B2FFD6F86831AA
:103060006BB11A68D5682C4A954240F04985186DB5
:10307000002800F077832F493E2205F029FC2046E6
:1030800008F09EFFD6F868316BB11A68D568224AFD
:10309000954240F01185186D002800F0768326498E
:1030A0003E2205F015FC204608F08AFFD6F868316C
:1030B0006BB11A68D568184A954240F00385186DBF
:1030C000002800F06B831D493E2205F001FC2046DC
:1030D00008F076FFD6F86831A3B31A68D5680E4AAF
:1030E000954240F0D984186D002800F07C83144983
:1030F0003E2205F0EDFB25E0FCEAFF1F00EBFF1F81
:103100008409010010090100E008010034090100F0
:1031100075040000710B0000B1090000501A010095
:10312000901A0100D01A0100101B0100501B010071
:10313000D4260100901B0100D01B0100101C0100CF
:10314000501C0100204608F03BFFD6F868316BB1F7
:103150001A68D568A64A954240F09884186D0028F0
:1031600000F03883A3493D2205F0B2FB204608F069
:1031700027FFD6F868316BB11A68D5689C4A95422A
:1031800040F0A684186D002800F011839A490022AF
:1031900005F09EFB204608F013FFD6F868316BB1AE
:1031A0001A68D568924A954240F09884186D0028B4
:1031B00000F007839149282205F08AFB204608F099
:1031C000FFFED6F868316BB11A68D568884A954217
:1031D00040F0B484186D002800F07D8288493322C5
:1031E00005F076FB204608F0EBFED6F868316BB1AF
:1031F0001A68D5687E4A954240F09A84186D002876
:1032000000F060827F492F2205F062FB204608F023
:10321000D7FED6F868316BB11A68D568744A954202
:1032200040F06284186D002800F08A8276493322CB
:1032300005F04EFB204608F0C3FED6F868316BB1AE
:103240001A68D5686A4A954240F05484186D00287F
:1032500000F07F826D49192205F03AFB204608F004
:10326000AFFED6F868316BB11A68D568604A9542EE
:1032700040F05884186D002800F01A825E49002240
:1032800005F026FB204608F09BFED6F868316BB1AE
:103290001A68D568564A954240F03E84186D002859
:1032A00000F0FD815A49152205F012FB204608F076
:1032B00087FED6F868316BB11A68D5684C4A9542DA
:1032C00040F06A83186D002800F0D781514915221B
:1032D00005F0FEFA204608F073FED6F868316BB1AF
:1032E0001A68D568424A954240F05B83186D002801
:1032F00000F0CC814849192205F0EAFA204608F08E
:103300005FFED6F868316BB11A68D568384A9542C5
:1033100040F0CD83186D002800F077823F491922D4
:1033200005F0D6FA204608F04BFED6F868316BB1AE
:103330001A68D5682E4A954240F0B483186D00286B
:1033400000F05A8236491A2205F0C2FA204608F0E7
:1033500037FED6F868316BB11A68D568244A9542B1
:1033600040F03383186D002800F058822D491A224E
:1033700005F0AEFA204608F023FED6F868316BB1AE
:103380001A68D5681A4A954240F02483186D0028BF
:1033900000F04D8224491D2205F09AFA204608F0DB
:1033A0000FFED6F868316BB11A68D568104A95429D
:1033B00040F00183186D002800F05D821B4919223E
:1033C00005F086FA204608F0FBFDD6F868318BB38D
:1033D0001A68D568064A954240F0E882186D0028C0
:1033E00000F040821249192205F072FA22E000BF73
:1033F000B1090000901C0100D4260100D01C01007E
:10340000FC1C0100301D0100601D0100941D010025
:10341000B01D0100C81D0100E01D0100FC1D0100E0
:10342000181E0100341E0100501E0100701E010014
:103430008C1E0100204608F0C3FDD6F868316BB140
:103440001A68D568A84A954240F0C982186D0028CC
:1034500000F0F681A549182205F03AFA204608F056
:10346000AFFDD6F868316BB11A68D5689E4A9542AF
:1034700040F0BA82186D002800F0EB819C491822B8
:1034800005F026FA204608F09BFDD6F868316BB1AE
:103490001A68D568944A954240F0F082186D002869
:1034A00000F004829349192205F012FA204608F030
:1034B00087FDD6F868316BB11A68D5688A4A95429B
:1034C00040F09C82186D002800F0E7818A4918229C
:1034D00005F0FEF9204608F073FDD6F868316BB1AF
:1034E0001A68D568804A954240F03982186D0028E4
:1034F00000F0E5818149132205F0EAF9204608F041
:103500005FFDD6F868316BB11A68D568764A954286
:1035100040F06F82186D002800F0DA8178491D2292
:1035200005F0D6F9204608F04BFDD6F868316BB1AE
:103530001A68D5686C4A954240F04282186D00289E
:1035400000F0A2816F49262205F0C2F9204608F05A
:1035500037FDD6F86841002C52D023686A4FDB6AE9
:10356000BB4240F09082A06D18B10BF0F7FD002334
:10357000A365236D002B00F0E28104F1180006F032
:103580004FFDD6F868516C68013C6C60002C34D15A
:103590002B68DB6ABB4240F0D782A86D10B10BF0FC
:1035A000DDFDAC652B6D002B00F0CE8105F1180020
:1035B00006F036FDD6F86841FCB12368534A5B68D3
:1035C000934240F0CD82A06D514B236018B10BF0B7
:1035D000C5FD0023A365236D04F11805002B00F041
:1035E000B682284606F01CFDC4F80880284606F07E
:1035F00017FD5C21204609F08BFA0023C6F86831DC
:1036000017B0BDE8F0832B68374ADB68C6F868510D
:1036100093423FF4B4AC3F4928463C229847B6E475
:10362000686D00283FF4B3AC3A493C2203F0DEFA5F
:10363000ADE4586D00283FF4E6AC37493D2203F075
:10364000D5FAE0E4586D00283FF4F1AC33493C2250
:1036500003F0CCFAEBE4586D00283FF4C0AC3049DD
:103660003D2203F0C3FABAE4586D00283FF4A3AC3E
:103670002C493C2203F0BAFA9DE4586D00283FF42F
:1036800029AE2949152203F0B1FA23E6586D002826
:103690003FF434AE2549192203F0A8FA2EE6586DFE
:1036A00000283FF403AE2249152203F09FFAFDE5FE
:1036B0005B6D002B3FF4E6AD02461E49184603F051
:1036C00095FADFE5586D00283FF4A0AD1A492F2286
:1036D00003F08CFA9AE5586D00283FF483AD174942
:1036E000332203F083FA7DE5B1090000A81E010032
:1036F000C41E0100E01E0100FC1E0100181F010095
:103700002C1F01004C1F010075040000710B00000C
:1037100084090100501A0100101B0100501B010018
:10372000D01A0100901A0100C81D0100E01D01001F
:10373000B01D0100D4260100301D0100FC1C010059
:10374000586D00283FF476ADAF49332203F04EFAAE
:1037500070E5586D00283FF481ADAC49192203F0A3
:1037600045FA7BE5586D00283FF489ACA8493E2214
:1037700003F03CFA83E45B6D002B3FF46CAC024633
:10378000A449184603F032FA65E4586D00283FF466
:103790008AACA1493E2203F029FA84E4586D00283E
:1037A0003FF495AC9D493E2203F020FA8FE45B6D17
:1037B000002B3FF4EFAC02469649184603F016FA88
:1037C000E8E4586D00283FF4F9AC9549282203F04D
:1037D0000DFAF3E4586D00283FF4C8AC91493D223E
:1037E00003F004FAC2E4586D00283FF4ABAC8E49F4
:1037F0003E2203F0FBF9A5E4586D00283FF4A6AD86
:103800008A491A2203F0F2F9A0E5586D00283FF426
:1038100089AD8749192203F0E9F983E5586D00283D
:103820003FF4A8AD83491A2203F0E0F9A2E5586DF0
:1038300000283FF4B3AD80491D2203F0D7F9ADE570
:10384000586D00283FF40AAE7C49182203F0CEF9E7
:1038500004E6586D00283FF415AE7949182203F0AC
:10386000C5F90FE6586D00283FF4E4AD75491922FB
:1038700003F0BCF9DEE5586D00283FF4A3AD7249B2
:10388000192203F0B3F99DE5586D00283FF45EAEB0
:103890006E49262203F0AAF958E6586D00283FF435
:1038A00019AE6B49182203F0A1F913E6586D0028F0
:1038B0003FF4FCAD6749192203F098F9F6E5586D1D
:1038C00000283FF41BAE6449132203F08FF915E67C
:1038D000586D00283FF426AE60491D2203F086F99A
:1038E00020E6D1F8881411B302AD0E9328460123C7
:1038F00002F088FD00283FF4C6AA284602F0E6FD43
:10390000FFF7C1BA159D002D7FF4C9AADFF85081D9
:10391000CDF8088006A806F083FBD6F8687104F598
:103920008A541834002F7FF4E4AAFFF730BB02ADAD
:10393000FFF7ABBA284605F047FCFFF7A4BA636D62
:10394000002B7FF41AAE1CE66B6D002B7FF42EAEBD
:1039500030E67B6D002B7FF4E2AAFFF7E4BA3E4924
:1039600018461322A847C9E53E4918463D22A847F4
:10397000FFF749BB3C4918463C22A847FFF757BB15
:103980003A4918463D22A847FFF729BB384918464F
:103990003C22A847FFF70FBB364918461522A84717
:1039A00098E4354918461922A847A7E4254918463E
:1039B0001922A8473EE5244918461922A84701E5DF
:1039C000224918462622A847C0E51A4918461A2255
:1039D000A847CFE4184918461D22A847DEE4174936
:1039E00018461822A84739E5154918461822A8474D
:1039F00048E51A4918461D22A84793E51449184678
:103A00001822A84766E500BF601D0100941D010053
:103A1000901B0100D4260100D01B0100101C0100E6
:103A2000D01C0100901C0100501C0100181E010058
:103A3000FC1D0100341E0100501E0100A81E0100E3
:103A4000C41E01008C1E0100701E01004C1F0100ED
:103A5000FC1E0100E01E0100181F01002C1F0100C8
:103A600010090100101B0100501B0100D01A0100B9
:103A7000901A0100C81D0100E01D01003F491846D1
:103A80001922A84712E5204698477AE53C4918468E
:103A90003D22A847FFF76ABB3A4918463E22A8478D
:103AA000FFF750BB384918461A22A8474EE4374959
:103AB00018461922A84735E4354918463E22A8473A
:103AC000FFF7F1BA334918463E22A847FFF7FFBA7D
:103AD000314918460022A847FFF75CBB2F4918461A
:103AE0002822A847FFF76ABB2D4918463322A8476A
:103AF000FFF7A0BB2B4918461922A847FFF7AEBB1A
:103B0000294918463E22A847FFF7B9BA2249184664
:103B10000022A847FFF79FBA244918461522A84754
:103B2000FFF7C4BB1C4918460022A847FFF7AABBF1
:103B30001F4918462F22A847FFF768BB1D491846A2
:103B40003322A847FFF74EBB2846984732E5636DFE
:103B5000002B7FF446AD47E538469047FFF7E3B9C1
:103B60002046984749E57B6D002B7FF4F3A9FFF7CA
:103B7000F4B938469847FFF7F9B900BFE01E0100D5
:103B8000901C0100501C0100181E0100FC1D0100CA
:103B9000D01B0100101C0100D4260100D01C010024
:103BA000601D0100941D0100901B0100B01D01006B
:103BB000301D0100FC1C01002DE9F04700F5805785
:103BC000002306460C4694B000F580713B6500F575
:103BD0008850FF22A1F58073A3F85020A3F852204B
:103BE000A3F85420A3F85620A3F85820A3F85A208D
:103BF000A3F85C20A3F85E2010338B42ECD103F5D0
:103C000080718842E6D12CB9304614B0BDE8F04747
:103C1000FEF7B8BB0023A04AA049684606F01CFB8B
:103C2000129B002B00F0D1805C2008F06FFF019BFD
:103C3000C360029B03619DF80C300375984B0360D1
:103C40000446984B83600025456004A9183006F0AF
:103C5000B9F96368DFF85082A56501336360934B5F
:103C6000A36004A8CDF8008006F0DAF92368904A32
:103C70001B6C934240F0DE80206D002800F0DD8058
:103C8000037813F0700F40F0C9806368894D049485
:103C900001336360002301938DF80C304FF47A7385
:103CA0000095029369463046FEF740FE0095049D5C
:103CB0008246002D3BD06B6803F1FF39C5F80490B4
:103CC000B9F1000F33D12A687B49D26A8A4240F0A9
:103CD000BE80A86D18B10BF041FAC5F858902B6D55
:103CE000002B00F0D38005F1180006F099F92B683D
:103CF000724A5B68934240F0C280A86D684B2B60AB
:103D000018B10BF02BFA0023AB652B6D05F11809E8
:103D1000002B00F09F80484606F082F9C5F8088025
:103D2000484606F07DF928465C2108F0F1FEBAF11C
:103D3000000F5FD0002C67D023685F4EDB6AB34270
:103D400065D1A06D18B10BF009FA0023A365236DAE
:103D5000002B5FD004F1180006F062F96568013DA0
:103D60006560002D50D12368DB6AB34240F0848047
:103D7000A06D10B10BF0F2F9A565236D002B77D083
:103D800004F1180006F04CF923684C4A5B68934232
:103D900069D1A06D424B236018B10BF0DFF900230D
:103DA000A365236D04F11805002B58D0284606F0B2
:103DB00037F9C4F80880284606F032F95C2120461D
:103DC00014B0BDE8F04708F0A3BE139C002C7FF4AC
:103DD0002BAFDFF8D480374DCDF8008004A806F073
:103DE0001FF94FF47A7301948DF80C4004940095F8
:103DF000029357E73046FFF72DF8D7F854113046B5
:103E0000FEF7DCFA002C97D114B0BDE8F08720460D
:103E10009847A3E7636D002B9CD19FE7294604F0E8
:103E200085FB606D00283FF430AF0022002302F0D4
:103E300047F82AE72046984727E7606D00283FF4B7
:103E400024AF90F8313013F0500FEED11DE7284623
:103E500090474CE76B6D002B7FF45DAF5EE7636DC1
:103E6000002BA3D1A5E7204614B0BDE8F0471847C2
:103E7000636D002B84D187E72046984784E7284666
:103E80009847BAF1000F7FF455AFB3E76B6D002B85
:103E90007FF429AF2BE700BF741F010000EBFF1F69
:103EA00084090100E0080100100901003409010043
:103EB000210600005809010075040000710B000084
:103EC00008B5007D08F098FF003818BF012008BD34
:103ED0000846C0B2D1B208F09DBF00BF0181704753
:103EE00030B5837A0168244A23F0040383720B6897
:103EF000934287B004463DD1007D08F07DFF003835
:103F000018BF0120A37AC3F3400290420BD01B4A92
:103F10001268019283F00203019A6260A372C3F3F4
:103F2000800007B030BD154965680A680292029AA0
:103F3000B4F808C0521B624518D303F00102904246
:103F400014D00A68039203980A68049283F001036C
:103F500043F00403049AA3720968E3680591059984
:103F60006060D31AE16023610120DAE7C3F38000C7
:103F700007B030BD9847C5E7C13E000094F0FF1F71
:103F8000807A00F00500A0F10500B0FA80F0400949
:103F9000704700BF0022054942604FF00A0CA0F8AC
:103FA00008C0827201600275704700BFC020010026
:103FB00010B5002203688272C9B201751B680E4AEF
:103FC000934282B004460ED1084608F015FF18B19E
:103FD000A37A43F00303A372084B1B680193019B70
:103FE000636002B010BD98470028F5D0A37A43F073
:103FF0000303A372F0E700BFC13E000094F0FF1F6F
:104000002DE9F04F002183B0814607F079FC0028AC
:1040100000F0358199F81C30B3B300F5827A031DA6
:104020000190D646B9F81E209ABB99F81C100229B7
:1040300009D00139062900F2EF80DFE801F0D4ED64
:104040000BBEA68A6F00B9F82C10A9F81E10002923
:1040500040F0D8804FF0040289F81C20D9F83020B5
:10406000B9F82E10A9F81E1002F1404292FBF1F2AD
:10407000C9F824207345D5D3DDF8048048460022D2
:10408000414607F00FFC404603B0BDE8F04F07F093
:10409000DFBB013AD9F820101FFA82F8D9F82420A2
:1040A000891301EB624101EB624606EB624C0CEBBB
:1040B000624505EB624000EB624707EB624404EBAC
:1040C0006242D3F800B0D3F804A031FB0BF136FB09
:1040D0001BF6C1EA06463CFB0AFC35FB1AF5CCEAA6
:1040E0000545996830FB01F037FB11F7C0EA07403E
:1040F000D96834FB01F432FB11F2C4EA02441E60B9
:104100005D609860DC60D9F82020D9F82410A9F807
:104110001E800A441033C9F82020ABE7B9F82820E4
:10412000A9F81E200021C9F82010002A00F08C8078
:10413000013A4FF0010089F81C001FFA82F8C9F813
:1041400024100A460C460F4608460D468C460E467D
:10415000B7E700219E45DDF8048089F81C108DD951
:1041600008F20310C01A03F1100220F00F002033F0
:10417000034442F8101C42F80C1C42F8081C42F898
:10418000041C10329342F4D178E7D9F82010D9F802
:104190002420891301EB624101EB624606EB624C7D
:1041A0000CEB624505EB624000EB624707EB6244B3
:1041B00004EB62424FF6FE7883E7D9F83010C9F875
:1041C00020104FF00502891389F81C200022C9F83D
:1041D00024200C460A460F4608460D468C460E46DD
:1041E0004FF6FE786DE74FF0020289F81C20B9F80F
:1041F0002A20A9F81E204FF08041B1FBF2F2C9F845
:10420000242037E7C9F824204FF08042C9F8202045
:10421000032289F81C202DE7D9F82010D9F8242092
:10422000891301EB624101EB624606EB624C0CEB39
:10423000624505EB624000EB624707EB624404EB2A
:1042400062424FF6FF783CE74FF0020289F81C20EB
:104250004FF08041B9F82A20B1FBF2F1C9F82410DF
:10426000491401EB8100013A00EB41041FFA82F886
:104270004E0001EB410C8D000F180A1921E703B025
:10428000BDE8F08F72B6037F012B01D9C28EA2B9AF
:10429000038DC3830022026253B9428DC28302217F
:1042A0004FF080430177B3FBF2F3436262B670478D
:1042B00001230377426262B67047072BF6D0036A88
:1042C000C28307215B42017793FBF2F3436262B63C
:1042D000704700BF10B5044607F0D0FC204610BD63
:1042E000024A034903480AF079BA00BF24BEFF1FFF
:1042F000D542000068EAFF1F38B5074D074C084853
:104300002A4621460AF06AFA2A4621460548BDE8AF
:1043100038400AF063BA00BF24BEFF1FD542000038
:1043200070EAFF1F78EAFF1F024A034903480AF0B8
:1043300055BA00BF24BEFF1FD542000080EAFF1F10
:10434000024A034903480AF049BA00BF24BEFF1FCE
:10435000D542000088EAFF1F024A034903480AF0D9
:104360003DBA00BF24BEFF1FD542000090EAFF1FE8
:10437000024A034903480AF031BA00BF24BEFF1FB6
:10438000D542000098EAFF1F024A034903480AF099
:1043900025BA00BF24BEFF1FD5420000A0EAFF1FC0
:1043A000024A034903480AF019BA00BF24BEFF1F9E
:1043B000D5420000A8EAFF1FF8B5002705463C4695
:1043C000B4B33946284607F08FFA08B3BB1D04F191
:1043D000040E55F82360B6F5803F00F1040C47D079
:1043E00000F582715CF8042B36FB02F336FB12F207
:1043F00003F30F0302F30F02C3EA0243DEF80020C7
:1044000093FA12F38C454EF8043BEBD107F020FAF7
:104410000137042FD4D128462146002207F042FA62
:104420002046BDE8F84007F013BA0137042F3BD00F
:104430003946284607F064FA04460028F5D0BB1D2B
:1044400055F82300B0F5803FE2D0211D04F58276B7
:104450000B6830FB03F230FB13F302F30F0203F39C
:104460000F03C2EA034341F8043BB142F0D1CFE766
:1044700000F10C0204F10C0300F5867C53F8081CD3
:1044800052F8086C91FA16F143F8081C52F8046CC3
:1044900053F8041C91FA16F10832944543F8041CB1
:1044A00003F10803EAD1B1E7F8BD00BF024A0349AE
:1044B00003480AF093B900BF24BEFF1FD542000095
:1044C000B0EAFF1F10B5002107F00EFA80B10346D5
:1044D00072B6094A106860B108490C6834B11460BA
:1044E0000B6062B6BDE8104007F0B2B90B6062B66F
:1044F00010BD136062B610BDB8EAFF1FBCEAFF1F13
:1045000010B51A4B1A481A681A4912681B791A4CC6
:10451000C3778A42206836BF0A46A1F5807202F549
:104520008071D8B100F1040C3CF9023B03F5004363
:104530001B1122F8023B9142F6D807F089F90F4B84
:104540000022196821601A600D4B1B782BB14FF0C7
:10455000E0234FF08042C3F8082210BD4FF40063FF
:1045600022F8023B9142FBD8EEE700BFC4EAFF1FEE
:1045700000800040E0B5FF1FB8EAFF1FBCEAFF1F44
:10458000C0EAFF1F70B501213C483D4D07F018FB04
:104590003C4AD36A802143F48053D362002485F8D7
:1045A000211040F608062C800120083408F06EFC2B
:1045B000A3B2B34224B2F6D1324BDB6B5B0205D51A
:1045C000314A116848F6A2738B4348D02D492E4BCF
:1045D000CA6B2E4842F480020124CA63DC6048F6AC
:1045E000A37140F23F4440F201125C601960186010
:1045F0001A61224C264823682649D860264A20485A
:1046000019605A60186100224FF48071022506205B
:10461000D9829A82D9839A6198839D60237903F124
:10462000804303F50433B0211A70197007F074FA4F
:1046300022791A491A4C5311207003F13823CA7693
:1046400002F110001749184C41F820404033AB40AC
:1046500002F01F02012101FA02F21A6070BD5168D6
:1046600040F23F439942B1D1D368012BAED11269D8
:1046700040F201139A42A9D1BBE700BFC4EAFF1F71
:1046800000C00C400080044000600340A28F010085
:1046900000FEFFFFE0B4FF1F0200010100800040A8
:1046A000C0EAFF1F00B8FF1F01450000024A03498E
:1046B00003480AF093B800BF24BEFF1FD542000094
:1046C000C4EAFF1F024A034903480AF087B800BF43
:1046D00024BEFF1FD5420000CCEAFF1F024A034957
:1046E00003480AF07BB800BF24BEFF1FD54200007C
:1046F000D4EAFF1F024A034903480AF06FB800BF1B
:1047000024BEFF1FD5420000DCEAFF1F024A034916
:1047100003480AF063B800BF24BEFF1FD542000063
:10472000E4EAFF1F024A034903480AF057B800BFF2
:1047300024BEFF1FD5420000ECEAFF1F024A0349D6
:1047400003480AF04BB800BF24BEFF1FD54200004B
:10475000F4EAFF1FB1F5803F4FEA21235FFA81FCA5
:1047600011DA0F495A1C023331F9122031F91300C2
:10477000CCF580730CFB00F002FB030080300012CC
:1047800000F5C0407047C3F5FF710548C3F50073DD
:10479000013130F9132030F9110052424042E7E76D
:1047A000C8200100B1F5704F2DE9F0410F460646D3
:1047B00090462BDC1D460C4606E004F58054B4F50B
:1047C000704F05F1010518DC002CF6DB2146304660
:1047D000B8F1000F28D0FFF7BDFF05F00F0306EB7F
:1047E000830304F58054D3F81021B4F5704F1044BE
:1047F000C3F8100105F10105E6DDC7F5704323F4A8
:104800007F6307F5805723F00F031F44D6F8083164
:1048100006EBC302013303F01F03976082F80C809C
:10482000C6F80831BDE8F081FFF794FF4042D4E7B5
:104830002DE9F04FD0F80841D0F80C71D0F804B051
:1048400083B0E31BDB0601943DD0DFF8848006468D
:10485000013C04F01F0406EBC4093046D9F80850A7
:1048600099F80CA0294605F58055FFF773FFB5F5BB
:10487000003FC9F8085008DB7368BAF1000F14BF95
:104880004FF44042424613447360BAF1000F00D126
:104890004042A7428344DBD1013756F83730B3F5A5
:1048A000003F10DB019B07F01F07BB42C6F80C71ED
:1048B00009D0013756F83730B3F5003FA4BF07F0F1
:1048C0001F07C6F80C71584603B0BDE8F08F00BF53
:1048D0000040FFFF002938B50446154603DB026897
:1048E000002A20DB38BD0368002BFBDBD0F8540125
:1048F000CA1AC11A08030023090D0AF0A5FA94F890
:10490000503140F6FF71B0F5805F18BF0146002BB3
:10491000E8D02B46002249422046FFF743FF002300
:1049200084F8503138BDC2F1000C00238A1A4FEAD6
:104930000C304FEA1C510AF087FA94F8503140F6D7
:10494000FF71B0F5805F18BF0146002BCAD12B461E
:10495000012249422046FFF725FF012384F8503108
:1049600038BD00BF2DE9F843044690F850010D46CC
:1049700017461E46D8B12268D4F854118A424ED246
:10498000A9424ED8891A0023AA1A0803090D0AF071
:104990005BFAB0F5805F18BF4142334608BF224939
:1049A00000222046FFF7FEFE002384F85031D4F8A1
:1049B0000080B8F1000F32DA002D30DBC8F10001C1
:1049C000A5EB08094A4600230803C4F85471090DF1
:1049D0000AF03AFAB0F5805F14BF414212493346FB
:1049E00001222046FFF7DEFE0123BD4284F850314C
:1049F00015D3A7EB08014A4600230803090D0AF066
:104A000023FAB0F5805F18BF4142334608BF06491C
:104A100000222046FFF7C6FE002384F85031BDE88F
:104A2000F883AA42FBD9ADE701F0FFFF70B50E1E77
:104A3000054614461BDBFFF7FBFE2A684FF4404394
:104A4000A2FB0313A3F5C043002A00FA83F309DB9A
:104A500004F00F0405EB8404B4F91001C4F810311C
:104A60002E6070BD6A6802F540426A60F0E7026835
:104A7000002A11DBC2F100410023B21A0803090D1C
:104A80000AF0E2F9B0F5805F14BF414209492346BC
:104A900000222846FFF786FE31462846FFF7C8FE6B
:104AA0002A684FF44043A2FB0323A3F5C04300FA56
:104AB00083F3CDE701F0FFFF2DE9F04F436A00F1EA
:104AC0001804D0CC85B005462BB904EBC61484611C
:104AD00005B0BDE8F08F06F065FE0090002857D0C5
:104AE000E3190193009B1C1DB5F932300C2B29D81A
:104AF000DFE813F0870079000D00A500BF00E60095
:104B0000FF000E0127015300530069018E01686AFE
:104B100020F34F00009AC0F1000C931D02F5837E34
:104B2000019A00B20FFA8CFC002AACBF0146614624
:104B300023F8021C02339E453244F5D1019B03EB5E
:104B4000C61301932B6A019AD21AB5F93430AA61BF
:104B50007BB1009A02F582711A4601E0B5F9342062
:104B6000B4F90030134403F30F0324F8023BA142CD
:104B7000F4D1009C28460022214606F093FE2046F0
:104B800005B0BDE8F04F06F063BE009806F060FE89
:104B9000AB6903EBC613AB619AE7009BDDF804B089
:104BA00005F1380903F1060A4FF000080BE002FB9B
:104BB00000F0031408F10108B8F1800F2AF8023C54
:104BC0000AF1020ABAD0B344424659464846FFF7B2
:104BD0002DFFB5F932306A6A0A2BE8D1524200FB48
:104BE00002F21314E6E7009B6F6A019A03F58270E4
:104BF000234637FB12F123F8021B98423244F8D1C6
:104C00009CE7009B6F6AA648019A03F5827C2146C7
:104C1000130E03F1010E30F9139030F91E80C2F328
:104C20000F2ECEF5803309FB03F30EFB083353FB45
:104C300007F321F8023B8C453244E9D17EE7009B23
:104C4000686A019A991D03F5837E4FF6FF7C970FE2
:104C5000013F012FACEBD23300FB03F384BFD3132E
:104C600043431B1421F8023C02318E453244EED1FD
:104C700064E7E86A002888D0009B6F6A019A03F510
:104C8000827C21464FEA126E0EF10103BEF1FF0F46
:104C900014BF00EB43030346C2F30F28B3F90030FF
:104CA00030F91EE0C8F5803908FB03F309FB0E3329
:104CB00053FB07F321F8023B8C453244E2D13DE738
:104CC000686A20F34F00009AAF6AC0F1000C931D90
:104CD00002F5837E019A00B20FFA8CFC974294BFD2
:104CE0006146014623F8021C02339E453244F5D149
:104CF00024E7009B686A019A03F5827CC04323463F
:104D000030FB12F123F8021B9C453244F8D115E721
:104D1000009BDDF8048003F5827AA14602E0CA45D3
:104D20003FF40CAFB5F9303029F8023B18EB060818
:104D3000F5D3686A07F008FA6B6AA0EB630028866F
:104D4000EDE7AB6A03946FEA53020292019A686A34
:104D5000029C4FEA13484FEA5309A2EB530E009B03
:104D6000C8F57F41FF3103F1060C03F5837A6FF03C
:104D700000474FF0FF33B3FBF8F8B3FBF1FB18E04B
:104D80004FEA1E4109EB02030BFB11711B0C0914C6
:104D900008FB03F3944200FB01F103F1004374D9D3
:104DA0000B142CF8023C0CF1020CD4453244B644EE
:104DB00070D0130C08FB03F31B0C914500FB03F3AD
:104DC000DED91B14EDE7019F05F1380AA3464FF029
:104DD00000083744424639465046FFF77BFD3946C6
:104DE0005046FFF725FD08F00F0205EB820208F19F
:104DF0000108B2F94831C2F84801696AAF6301FBA2
:104E000003F31B14B8F1800F2BF8023BE1D195E6B8
:104E1000019F029405F13809A0464FF0000BAC6ADF
:104E200037445B46224639464846FFF79BFD3946E4
:104E30004846FFF7FDFC1B4BA3FB043CA4EB0C0A0C
:104E40000BF00F0305EB83030CEB5A0C4FEA1C4CE1
:104E5000D3F84821CCF5405C6044C3F848015311B5
:104E6000C3EB62036A6AAF631BB20BF1010B02FB77
:104E700003F31B14BBF1800F28F8023BCFD1019B39
:104E8000029C03EBC61301935CE61B1400FB03F3C7
:104E90001B1486E7019B039C03EBC613019351E6A9
:104EA000CC220100016000802DE9F047C1EBC16810
:104EB0004FEA4813002B2C4ADFF8B0A003604FF0F4
:104EC0000006A8BF4FF4C0420F4605464260C0F836
:104ED0000861C0F80C61CC18C3F100484FF4404998
:104EE0001DE021462846FFF7A3FC2A68A2FB091310
:104EF000A3F5C043002A00FA83F003DA6B6803F5D8
:104F000040436B6006F00F034433013600B2202E9D
:104F100045F82300A8EB07082C603C4422D0002C65
:104F2000DFDAE31B002B11DB3A4600234FEA08309F
:104F30004FEA185109F088FFB0F5805F14BF414275
:104F40005146334600222846FFF72CFC21462846CE
:104F5000FFF76EFC2B68A3FB0923A3F5C04300FAFF
:104F600083F0CFE7BDE8F08700A0FFFF01F0FFFF6F
:104F70002DE9F843C1EBC1646401A2421C4BC0F8A7
:104F8000542188BF4FF4C04343601A4B04609146DC
:104F9000A3FB0923A9EB03024FF0000503EB520723
:104FA0004FEA17478CBF01232B4688460646C0F8B8
:104FB0000851C0F80C510C44C7F5405780F85031E7
:104FC0002B4621464A463046FFF7CCFC2146304668
:104FD000FFF72EFC05F00F0344333844013500B2CF
:104FE000202D46F8230034604444E9D1BDE8F8831D
:104FF00000A0FFFF016000804FF00042FFF7B8BF44
:1050000000224FF4C041C0F80821C0F80C214160D3
:105010000260704790F81CC04160BCF1020FC26092
:1050200001D18368184706F043BE00BF844600687C
:105030002DE9F0410C4611461A46C36813F0807FF3
:105040007A4B03604BD1D30700F1D1809CF82460E8
:10505000174646EA0626002F00F0B78034B12678BE
:10506000637846EA032676BA0234B6B2DCF8043036
:1050700093F808E0022F0EF1FF3E4FEA0E3E0CBF00
:1050800046F0805346F010431FFA8EFE4363023F02
:105090000AE011B105F8010B2946013A03F4704307
:1050A000734517D9DCF80000C36A13F0F00FF5D090
:1050B00012F0010F806B0D46EBD1C0F3072819B138
:1050C00005F8028B4870294603F470437345A2F13A
:1050D0000202E7D8002F78D0DCF80000BEE7D30743
:1050E0005FD49CF824701646BFB2002E45D024B180
:1050F000637814F8027B47EA0327DCF8043093F85E
:1051000008E0022E0EF1FF3E4FEA0E3E0CBF47F0C4
:10511000805347F010431FFA8EFE4363023E0AE0BD
:1051200011B105F8010B2946013A03F470437345A8
:1051300017D9DCF80000C36A13F0F00FF5D012F0B5
:10514000010F806B0D46EBD129B105F8020BC0F3BE
:1051500007204870294603F470437345A2F1020208
:10516000E7D856B1DCF80000C1E729B100F8023BEE
:10517000C3F307234B700146023A82B1DCF80030DA
:10518000D86A10F0F00FF8D0D4079B6B0846ECD526
:1051900011B100F8013B0146013A002AEED1BDE809
:1051A000F08184B314F8013B012A18BF43F0004397
:1051B00043639CF82470561E96E7C3F3072419B185
:1051C00000F8024B4B700146023A002AE7D0DCF8A7
:1051D0000030D86A10F0F00FF7D0D4079B6B084668
:1051E000EBD511B100F8013B0146013AEDE79CB166
:1051F00014F8013B012A18BF43F0004343639CF8B5
:105200002460571E25E79CF82470012A1ABF47F036
:10521000004343634763CEE79CF82460012A1ABF2A
:1052200046F0004343634663EBE700BF00041F8082
:10523000436810B41C685A682168114302682160F1
:10524000154C16491460D160154C16491461116053
:10525000417A154A5C180A3194F824C053F8214069
:1052600002EBCC0149680C60017A5C1803EB810108
:1052700094F818C0CC6902EBCC0149680C60817AC3
:1052800010BC581803EB810390F83000596B02EB07
:10529000C00253681960704701401F0001100038B8
:1052A0000110007800001F80142A010010B4426829
:1052B00090F809C0104B944400219CF824C003EBE3
:1052C000CC0CDCF80440216090F808C094449CF8B1
:1052D00018C003EBCC0CDCF804402160847A006831
:1052E0002244064C92F8302003EBC2035B6819603D
:1052F000046010BC704700BF142A010001401F0069
:10530000204B4268934270B40FD0437A134493F811
:1053100024308B4207D092F824C08C4515D092F8E7
:1053200025C08C452AD070BC70470B2907D00729AF
:10533000EBD1154C237843F001032370E5E7124CC1
:10534000237823F001032370DFE700210C46156862
:105350002E6855682E420FD00C4D05EBC303002676
:105360005B681E6013190A3493F8243052F8242025
:1053700005EBC3056B681A604172D4E701210C4646
:10538000E5E700BF8C25010091F0FF1F142A010002
:10539000204A43689A4230B40FD0827A1A4492F875
:1053A00030208A4207D093F830C08C4515D093F84E
:1053B00031C08C452BD030BC70470D2907D00E2949
:1053C000EBD1154C227842F004022270E5E7124C32
:1053D000227822F004022270DFE700218C461C684C
:1053E00025685C68254210D00C4C04EBC2020025F5
:1053F0005268156003EB0C0203EB8C0392F830202B
:1054000004EBC2045A6B63681A608172D3E701210E
:105410008C46E4E78C25010091F0FF1F142A01005F
:105420000BB1FFF703BE704770B4016B4A4A0979AC
:10543000D177C16A09791177016B09791177826A8D
:1054400003462AB34168C9688A4243D9C46A006BDB
:10545000521A21689A620D6803F12404A5424FF0A4
:10546000010259D01C68E56815F0804F0D6829D1FC
:105470002D780E6845F0004501360E6065633649AB
:105480000079C87612B1DB6A1B79CB7670BC7047A5
:105490000168324C406B0A63CC62CC6824F08044D3
:1054A000CC6004682E4924684FF0030C8C4283F8CA
:1054B00025C039D1037F4260022BC26038D170BC55
:1054C000836818472D880E6845F0004502360E6047
:1054D0006563D4E7C16A0968CC8B260402F1FF300A
:1054E00031D4C0F30E00C883CC8B186BA4B2CC822D
:1054F0000468E58B2D041ED4C2F30E05E583E58B0D
:10550000ADB2E5820D680024013A9C6203F12404E7
:1055100018BF0122A542A5D11968CC6893F8244090
:1055200044F000444C63AAE72346114670BC184778
:1055300070BC06F0BDBBE58BC2F3080605F47E45E2
:105540003543E583DBE7CC8BC0F3080004F47E44ED
:105550002043C883C8E700BF0080004000000FFF61
:105560001550000008B50248FFF75EFF08BD00BFF8
:105570002CBFFF1F704700BF30B583B005460C46F7
:1055800007F0B0FB1C4B984204D800232B802380EB
:1055900003B030BD694606F021FD9DF806309DF848
:1055A00005109DF80420503B9BB27F2B05D801319C
:1055B000C9B20C2901D81F2A11D900239DF8022055
:1055C0002B80172A9DF801309DF8001003D83B2B43
:1055D00001D83B2909D90023238003B030BD42EA1A
:1055E000411242EA43239BB2E8E75B0143EAC2234C
:1055F00043EA51039BB2EFE7FFA5CE12F0B5012BB2
:1056000095B0054638D0022B40F202200CBF03466D
:1056100000230431684604F01FFE129B002B34D097
:105620005C2007F073FA1F4B0026C0E90036019B8F
:10563000C3601D4B8360029B036104AF9DF80C3077
:10564000037504463946183004F0BCFC174BA360C0
:105650004FF47A73AB606368154AA66501336E60D8
:105660002A602E732C616360124B0093384604F05D
:10567000D7FC284615B0F0BD44F202230431684639
:1056800004F0EAFD129B002BCAD1139B002BC7D15B
:10569000074A6B604FF47A71A9602B732A602B6103
:1056A00004AFE1E784090100E008010034090100CA
:1056B000580901001009010010B5D0F884448EB0DB
:1056C0000A4644B1002321466846009302F0D4FC08
:1056D00080B90EB010BDD0F8881441B12346684699
:1056E0000C9400F08FFE50B900200EB010BD08469B
:1056F0000EB010BD684602F0D1FE0EB010BD684677
:1057000000F03EFF0028EFD0E3E700BF70B5D0F80F
:1057100084548EB016465DB105F5896500230A46AE
:1057200068462946009302F029FC90B90EB070BD7E
:10573000D0F888040028F9D000F589640A462B4681
:10574000214668460C9500F0F5FD48B900200EB0E2
:1057500070BD32462946684602F0E4FD0EB070BDC9
:1057600032462146684601F05DF80028EED0DDE7BC
:1057700010B5D0F884448EB00A464CB10020009099
:1057800001232146684602F077FC80B90EB010BDB7
:10579000D0F8881441B1012368460C9400F032FE21
:1057A00050B900200EB010BD08460EB010BD6846BE
:1057B00003F00AFD0EB010BD684600F087FE002819
:1057C000EFD0E3E730B5D0F884448FB00A464CB14F
:1057D0000025012304F589616846009502F05AFB13
:1057E0000FB030BDD0F888040028F9D000F58961E9
:1057F000012368460C9401F083F80FB030BD00BF60
:1058000010B5D0F884448EB00A463CB1002321463E
:105810006846009302F030FC0EB010BDD0F888143A
:1058200031B1234668460C9400F0ECFD0EB010BD7B
:1058300008460EB010BD00BF70B5054690F8C00414
:1058400008B9014670BDD5F88404002838D0C46971
:10585000D5F89034013C1BB31A7E0ABB01211846CF
:1058600005F016FB88B1D5F8840400283ED1D5F8A0
:10587000880408B102F0D4F80646D5F8900420B1A7
:10588000002105F005FB00B1A41BD5F8843473B1E9
:105890009B794FF40071994089B2A1FB040170BD5E
:1058A00004F042FAD5F88434241A002BF0D1D5F84C
:1058B00088040028C5D0D0F83C14A4FB010170BDB9
:1058C000D5F88804D5F8903450B1D0F8304423B1DD
:1058D0001A7E002AC2D00028B3D002F0A1F8E1E776
:1058E0000BB10446F4E718460146ABE704F01CFA96
:1058F0000646C2E72DE9F043D0F890548DB04DB183
:1059000098462B680446DB6928469847B0F5405F07
:10591000064604D8002630460DB0BDE8F0834FF4AB
:10592000007009F013FC07460028F3D00DF10409BC
:10593000B6F1806F024643462946484616D901F023
:1059400053FB0646384609F009FC002EE2D02B68CE
:1059500028461B6A984794F8B034FF2B0AD10023DD
:105960003046C4F890340DB0BDE8F08303F040FF3A
:105970000646E7E7D4F8B434B4F8B0240293D4F878
:10598000B834ADF80420039304F2944599E80E006E
:10599000284605F069FA94F8A134C4F89054002B15
:1059A000B9D101231A462946201D04F0E1FBB2E7D4
:1059B00090F8C03463B1D0F8843463B19A79D9696E
:1059C0004FF40070904080B20139A0FB0101704794
:1059D000184601467047D0F888040028F9D0D0F85E
:1059E0003C14D0F83004A1FB0001704770B5D0F82A
:1059F000903484B00446ABB190F8C05490F8C2041F
:105A00005DB1212820D807F0F7F9051E18BF012540
:105A1000284684F8C05404B070BD212808D807F087
:105A2000EBF928B90025284684F8C05404B070BDAD
:105A300094F8B034FF2B12D100232846C4F89034D8
:105A400084F8C05404B070BD6A460A21184604F0B8
:105A5000ADFE0546284684F8C05404B070BDD4F8A5
:105A6000B424D4F8B834B4F8B0140293ADF80010EC
:105A7000019204F294466B460ECB304605F0F4F9E1
:105A800094F8A134C4F89064002BCCD101231A46B9
:105A90003146201D04F06CFB0546C4E7F0B50D4609
:105AA000044685B0194805F031FB212D84F8C15416
:105AB00002D9002005B0F0BD0026154B02938DF8E9
:105AC00004508DF80560039604F29447C4F8B4348A
:105AD00004AB13E90E0084F8B05484F8B164C4F840
